{
  "_format": "hh-sol-artifact-1",
  "contractName": "SaveEther",
  "sourceName": "contracts/SaveEther.sol",
  "abi": [
    {
      "anonymous": false,
      "inputs": [
        {
          "indexed": true,
          "internalType": "address",
          "name": "user",
          "type": "address"
        },
        {
          "indexed": true,
          "internalType": "uint256",
          "name": "amount",
          "type": "uint256"
        }
      ],
      "name": "SavingSuccessful",
      "type": "event"
    },
    {
      "inputs": [],
      "name": "checkContractBal",
      "outputs": [
        {
          "internalType": "uint256",
          "name": "",
          "type": "uint256"
        }
      ],
      "stateMutability": "view",
      "type": "function"
    },
    {
      "inputs": [
        {
          "internalType": "address",
          "name": "_user",
          "type": "address"
        }
      ],
      "name": "checkSavings",
      "outputs": [
        {
          "internalType": "uint256",
          "name": "",
          "type": "uint256"
        }
      ],
      "stateMutability": "view",
      "type": "function"
    },
    {
      "inputs": [],
      "name": "deposit",
      "outputs": [],
      "stateMutability": "payable",
      "type": "function"
    },
    {
      "inputs": [
        {
          "internalType": "address",
          "name": "_receiver",
          "type": "address"
        },
        {
          "internalType": "uint256",
          "name": "_amount",
          "type": "uint256"
        }
      ],
      "name": "sendOutSaving",
      "outputs": [],
      "stateMutability": "nonpayable",
      "type": "function"
    },
    {
      "inputs": [],
      "name": "withdraw",
      "outputs": [],
      "stateMutability": "nonpayable",
      "type": "function"
    }
  ],
  "bytecode": "0x608060405234801561001057600080fd5b50610a30806100206000396000f3fe60806040526004361061004a5760003560e01c80631262c6a51461004f5780632d5675e41461008c5780633ccfd60b146100b7578063c3cf61a1146100ce578063d0e30db0146100f7575b600080fd5b34801561005b57600080fd5b5061007660048036038101906100719190610669565b610101565b60405161008391906106af565b60405180910390f35b34801561009857600080fd5b506100a1610149565b6040516100ae91906106af565b60405180910390f35b3480156100c357600080fd5b506100cc610151565b005b3480156100da57600080fd5b506100f560048036038101906100f091906106f6565b6102e5565b005b6100ff610482565b005b60008060008373ffffffffffffffffffffffffffffffffffffffff1673ffffffffffffffffffffffffffffffffffffffff168152602001908152602001600020549050919050565b600047905090565b600073ffffffffffffffffffffffffffffffffffffffff163373ffffffffffffffffffffffffffffffffffffffff16036101c0576040517f08c379a00000000000000000000000000000000000000000000000000000000081526004016101b790610793565b60405180910390fd5b60008060003373ffffffffffffffffffffffffffffffffffffffff1673ffffffffffffffffffffffffffffffffffffffff16815260200190815260200160002054905060008111610246576040517f08c379a000000000000000000000000000000000000000000000000000000000815260040161023d906107ff565b60405180910390fd5b806000803373ffffffffffffffffffffffffffffffffffffffff1673ffffffffffffffffffffffffffffffffffffffff1681526020019081526020016000206000828254610294919061084e565b925050819055503373ffffffffffffffffffffffffffffffffffffffff166108fc829081150290604051600060405180830381858888f193505050501580156102e1573d6000803e3d6000fd5b5050565b600073ffffffffffffffffffffffffffffffffffffffff163373ffffffffffffffffffffffffffffffffffffffff1603610354576040517f08c379a000000000000000000000000000000000000000000000000000000000815260040161034b906108ce565b60405180910390fd5b60008111610397576040517f08c379a000000000000000000000000000000000000000000000000000000000815260040161038e9061093a565b60405180910390fd5b806000803373ffffffffffffffffffffffffffffffffffffffff1673ffffffffffffffffffffffffffffffffffffffff1681526020019081526020016000205410156103e257600080fd5b806000803373ffffffffffffffffffffffffffffffffffffffff1673ffffffffffffffffffffffffffffffffffffffff1681526020019081526020016000206000828254610430919061084e565b925050819055508173ffffffffffffffffffffffffffffffffffffffff166108fc829081150290604051600060405180830381858888f1935050505015801561047d573d6000803e3d6000fd5b505050565b600073ffffffffffffffffffffffffffffffffffffffff163373ffffffffffffffffffffffffffffffffffffffff16036104f1576040517f08c379a00000000000000000000000000000000000000000000000000000000081526004016104e890610793565b60405180910390fd5b60003411610534576040517f08c379a000000000000000000000000000000000000000000000000000000000815260040161052b906109a6565b60405180910390fd5b346000803373ffffffffffffffffffffffffffffffffffffffff1673ffffffffffffffffffffffffffffffffffffffff1681526020019081526020016000205461057e91906109c6565b6000803373ffffffffffffffffffffffffffffffffffffffff1673ffffffffffffffffffffffffffffffffffffffff16815260200190815260200160002081905550343373ffffffffffffffffffffffffffffffffffffffff167f62d8fec9f61d4b47a4873e3c6baf9e3834c5d36a06c7035b3e2f4239b6fd6d6960405160405180910390a3565b600080fd5b600073ffffffffffffffffffffffffffffffffffffffff82169050919050565b60006106368261060b565b9050919050565b6106468161062b565b811461065157600080fd5b50565b6000813590506106638161063d565b92915050565b60006020828403121561067f5761067e610606565b5b600061068d84828501610654565b91505092915050565b6000819050919050565b6106a981610696565b82525050565b60006020820190506106c460008301846106a0565b92915050565b6106d381610696565b81146106de57600080fd5b50565b6000813590506106f0816106ca565b92915050565b6000806040838503121561070d5761070c610606565b5b600061071b85828601610654565b925050602061072c858286016106e1565b9150509250929050565b600082825260208201905092915050565b7f77726f6e6720454f410000000000000000000000000000000000000000000000600082015250565b600061077d600983610736565b915061078882610747565b602082019050919050565b600060208201905081810360008301526107ac81610770565b9050919050565b7f796f7520646f6e2774206861766520616e7920736176696e6773000000000000600082015250565b60006107e9601a83610736565b91506107f4826107b3565b602082019050919050565b60006020820190508181036000830152610818816107dc565b9050919050565b7f4e487b7100000000000000000000000000000000000000000000000000000000600052601160045260246000fd5b600061085982610696565b915061086483610696565b925082820390508181111561087c5761087b61081f565b5b92915050565b7f6e6f207a65726f20616464726573732063616c6c000000000000000000000000600082015250565b60006108b8601483610736565b91506108c382610882565b602082019050919050565b600060208201905081810360008301526108e7816108ab565b9050919050565b7f63616e27742073656e64207a65726f2076616c75650000000000000000000000600082015250565b6000610924601583610736565b915061092f826108ee565b602082019050919050565b6000602082019050818103600083015261095381610917565b9050919050565b7f63616e27742073617665207a65726f2076616c75650000000000000000000000600082015250565b6000610990601583610736565b915061099b8261095a565b602082019050919050565b600060208201905081810360008301526109bf81610983565b9050919050565b60006109d182610696565b91506109dc83610696565b92508282019050808211156109f4576109f361081f565b5b9291505056fea2646970667358221220a77859fdb76a6ed52aca9b4addb2d22d312c8978bf86c869f76a10e43c85d75564736f6c63430008130033",
  "linkReferences": {},
  "deployedLinkReferences": {}
}